{
    "contractName": "SimpleStorage",
    "abi": [
        {
            "inputs": [
                {
                    "internalType": "string",
                    "name": "_name",
                    "type": "string"
                },
                {
                    "internalType": "uint256",
                    "name": "_fN",
                    "type": "uint256"
                }
            ],
            "name": "addPerson",
            "outputs": [],
            "stateMutability": "nonpayable",
            "type": "function"
        },
        {
            "inputs": [],
            "name": "fN",
            "outputs": [
                {
                    "internalType": "uint256",
                    "name": "",
                    "type": "uint256"
                }
            ],
            "stateMutability": "view",
            "type": "function"
        },
        {
            "inputs": [
                {
                    "internalType": "string",
                    "name": "",
                    "type": "string"
                }
            ],
            "name": "nameTofN",
            "outputs": [
                {
                    "internalType": "uint256",
                    "name": "",
                    "type": "uint256"
                }
            ],
            "stateMutability": "view",
            "type": "function"
        },
        {
            "inputs": [
                {
                    "internalType": "uint256",
                    "name": "",
                    "type": "uint256"
                }
            ],
            "name": "people",
            "outputs": [
                {
                    "internalType": "uint256",
                    "name": "nfn",
                    "type": "uint256"
                },
                {
                    "internalType": "string",
                    "name": "name",
                    "type": "string"
                }
            ],
            "stateMutability": "view",
            "type": "function"
        },
        {
            "inputs": [],
            "name": "retrieve",
            "outputs": [
                {
                    "internalType": "uint256",
                    "name": "",
                    "type": "uint256"
                }
            ],
            "stateMutability": "view",
            "type": "function"
        },
        {
            "inputs": [
                {
                    "internalType": "uint256",
                    "name": "_fN",
                    "type": "uint256"
                }
            ],
            "name": "store",
            "outputs": [],
            "stateMutability": "nonpayable",
            "type": "function"
        }
    ],
    "bytecode": "60806040526001805460ff19168117905534801561001c57600080fd5b506105328061002c6000396000f3fe608060405234801561001057600080fd5b50600436106100625760003560e01c80632e64cec1146100675780635e0e4052146100815780636057361d146100895780636f760f41146100a85780639e7a13ad14610150578063b377e9ee146101ec575b600080fd5b61006f610292565b60408051918252519081900360200190f35b61006f610299565b6100a66004803603602081101561009f57600080fd5b503561029f565b005b6100a6600480360360408110156100be57600080fd5b8101906020810181356401000000008111156100d957600080fd5b8201836020820111156100eb57600080fd5b8035906020019184600183028401116401000000008311171561010d57600080fd5b91908080601f01602080910402602001604051908101604052809392919081815260200183838082843760009201919091525092955050913592506102a4915050565b61016d6004803603602081101561016657600080fd5b5035610392565b6040518083815260200180602001828103825283818151815260200191508051906020019080838360005b838110156101b0578181015183820152602001610198565b50505050905090810190601f1680156101dd5780820380516001836020036101000a031916815260200191505b50935050505060405180910390f35b61006f6004803603602081101561020257600080fd5b81019060208101813564010000000081111561021d57600080fd5b82018360208201111561022f57600080fd5b8035906020019184600183028401116401000000008311171561025157600080fd5b91908080601f016020809104026020016040519081016040528093929190818152602001838380828437600092019190915250929550610447945050505050565b6000545b90565b60005481565b600055565b604080518082019091528181526020808201848152600280546001810182556000829052845191027f405787fa12a823e0f2b7631cc41b3ba8828b3321ca811111fa75cd3aa3bb5ace8101918255915180519193610327937f405787fa12a823e0f2b7631cc41b3ba8828b3321ca811111fa75cd3aa3bb5acf0192910190610464565b505050806003836040518082805190602001908083835b6020831061035d5780518252601f19909201916020918201910161033e565b51815160209384036101000a600019018019909216911617905292019485525060405193849003019092209290925550505050565b6002818154811061039f57fe5b60009182526020918290206002918202018054600180830180546040805193821615610100026000190190911695909504601f810187900487028301870190955284825291955091939192909183018282801561043d5780601f106104125761010080835404028352916020019161043d565b820191906000526020600020905b81548152906001019060200180831161042057829003601f168201915b5050505050905082565b805160208183018101805160038252928201919093012091525481565b828054600181600116156101000203166002900490600052602060002090601f016020900481019282601f106104a557805160ff19168380011785556104d2565b828001600101855582156104d2579182015b828111156104d25782518255916020019190600101906104b7565b506104de9291506104e2565b5090565b61029691905b808211156104de57600081556001016104e856fea264697066735822122091f48d15c673b984079812a7457e2e3986f6b82d8537ebbf74016320ac2cc2c064736f6c63430006000033",
    "sourcePath": "c:/Users/LENOVO/Desktop/solidity/SimpleStorage.sol",
    "compiler": {
        "name": "solc",
        "version": "0.6.0+commit.26b70077"
    },
    "functionHashes": {
        "addPerson(string,uint256)": "6f760f41",
        "fN()": "5e0e4052",
        "nameTofN(string)": "b377e9ee",
        "people(uint256)": "9e7a13ad",
        "retrieve()": "2e64cec1",
        "store(uint256)": "6057361d"
    },
    "gasEstimates": {
        "creation": {
            "codeDepositCost": "266000",
            "executionCost": "21130",
            "totalCost": "287130"
        },
        "external": {
            "addPerson(string,uint256)": "infinite",
            "fN()": "998",
            "nameTofN(string)": "infinite",
            "people(uint256)": "infinite",
            "retrieve()": "977",
            "store(uint256)": "20211"
        }
    }
}